:100000000C94D7000C94F6000C94F6000C94F600B7
:100010000C94F6000C94F6000C94F6000C94F60088
:100020000C94F6000C94F6000C94F6000C94F60078
:100030000C94F6000C94F6000C94F6000C94140743
:100040000C94F6000C94F6000C94D9030C943C0428
:100050000C94F6000C94F8000C94F6000C94F60046
:100060000C94F6000C94F6000C94F6000C94F60038
:100070000C94F6000C94F6000C940A040C94690499
:100080000C94F6000C94F6000C94F60007634236CC
:10009000B79BD8A71A39685618AEBAAB558C1D3C19
:1000A000B7CC5763BD6DEDFD753EF6177231BF00DD
:1000B0000000803F00407A10F35A00A0724E1809E9
:1000C0000010A5D4E80000E87648170000E40B54BF
:1000D000020000CA9A3B000000E1F505000080968E
:1000E0009800000040420F000000A08601000000C0
:1000F000102700000000E80300000000640000007A
:1001000000000A00000000000100000000002C7642
:10011000D888DC674F0823DFC1DFAE59E1B1B7965D
:10012000E5E3E453C63AE651997696E8E6C28426BA
:10013000EB898C9B62ED407C6FFCEFBC9C9F40F296
:10014000BAA56FA5F490055A2AF75C936B6CF96712
:100150006DC11BFCE0E40D47FEF520E6B500D0EDD7
:10016000902E0300943577050080841E080000203F
:100170004E0A000000C80C333333330F986E1283DD
:100180001141EF8D2114893BE65516CFFEE6DB18B1
:10019000D1844B381BF77C1D901DA4BBE424203276
:1001A00084725E228100C9F124ECA1E53D2711246F
:1001B0001FBECFEFD0E1DEBFCDBF11E0A0E0B1E0C8
:1001C000E8E3F0E200E00BBF02C007900D92AC3E06
:1001D000B107D9F713E0ACEEB1E001C01D92A3392D
:1001E000B107E1F70E9430020C941A100C94000041
:1001F0001F920F920FB60F920BB60F9211242F93EE
:100200003F934F935F936F937F938F939F93AF939E
:10021000BF93EF93FF9380910101823009F443C0B3
:10022000833020F4813009F0E4C007C0833009F442
:1002300070C0843009F0DDC0A2C024B135B1809116
:10024000EC019091ED01280F391F3093ED012093BF
:10025000EC0180910001815080930001882309F016
:10026000C8C0379882E08093010180E1809300014B
:100270008DE487B954E0359527955A95E1F7B90192
:10028000882777FD8095982F0E94800B2FE135E815
:100290004BE650E40E94A10C0E94520B7093840321
:1002A00060938303A0C024B135B18091EC0190919B
:1002B000ED01280F391F3093ED012093EC0180915F
:1002C0000001815080930001882309F092C0379883
:1002D00083E08093010180E18093000184E487B989
:1002E00044E0359527954A95E1F7B901882777FDD0
:1002F0008095982F0E94800B2FE135E84BE650E463
:100300000E94A10C0E94520B709387036093860396
:100310006AC024B135B18091EC019091ED01280FB4
:10032000391F3093ED012093EC0180910001815041
:1003300080930001882309F05CC0379884E08093A3
:10034000010180E18093000185E487B994E035954F
:1003500027959A95E1F7B901882777FD8095982F21
:100360000E94800B28E03CEA4CE25FE30E94A10C73
:100370000E94520B709391036093900334C024B198
:1003800035B18091EC019091ED01280F391F309328
:10039000ED012093EC0180910001815080930001D8
:1003A000882339F5379881E08093010180E18093BB
:1003B000000189E487B984E0359527958A95E1F7AE
:1003C000B901882777FD8095982F0E94800B28E03F
:1003D0003CEA4CE25FE30E94A10C0E94520B709336
:1003E0008B0360938A031092ED011092EC01379A0F
:1003F000369AFF91EF91BF91AF919F918F917F912D
:100400006F915F914F913F912F910F900BBE0F9085
:100410000FBE0F901F9018953E9A86B18F6A86B9CD
:100420000895369A089537980895379A08958AB3AB
:1004300088678ABB82B1886182B9E4E6F0E0808196
:1004400088608083E5E6F0E08081877F8083A298E2
:1004500081B3806C81BBB998B898109261000895FF
:100460002F923F924F925F926F927F928F929F92C4
:10047000AF92BF92CF92DF92EF92FF920F931F93B2
:10048000DF93CF93CDB7DEB7C055D0400FB6F89409
:10049000DEBF0FBECDBF0E9417020E94A9030E94BB
:1004A00047070E94AF060E940C020E945A077894E8
:1004B0000E94110282E091E00E949505969A91E1D6
:1004C000292E312C2C0E3D1E0E94E5048823E1F3D9
:1004D0000E949B048237B9F1833768F48C36C1F1EE
:1004E0008D3618F4823681F728C08D3609F400C1A4
:1004F0008E3651F732C0853709F4FFC0863718F4BD
:10050000833711F71DC0863719F08937E9F608C11E
:100510008FE091E00E949505CE01019668E00E946F
:10052000DB05CE0101960E94550D8C0182E391E01E
:100530000E949505C801B801D8C00E940307C4CF26
:100540000E940E07C1CF8FEF90E060E070E0CDC059
:1005500080E090E06FEF70E0C8C0198A1A8A1B8AA9
:100560001C8A1D8A1E8A1F8A188EC1010E94790763
:1005700016B306B389899A89AB89BC8985369105FA
:10058000A105B10540F084E690E0A0E0B0E0898BE1
:100590009A8BAB8BBC8B8D899E89AF89B88D853644
:1005A0009105A105B10540F084E690E0A0E0B0E03F
:1005B0008D8B9E8BAF8BB88F69897A898B899C894B
:1005C00024E630E040E050E00E94120DCA01B9017B
:1005D0000E947E0B61966CAF7DAF8EAF9FAF61972F
:1005E0006D897E898F89988D24E630E040E050E067
:1005F0000E94120DCA01B9010E947E0B2B013C0121
:1006000080E090E0A0E0B0E089879A87AB87BC8764
:100610008D879E87AF87B88B612F70E07695679541
:1006200061707070882777FD8095982F0E94800BED
:100630006B017C01602F70E061707070882777FD1E
:100640008095982F0E94800B4B015C01CE0109968A
:10065000B301A20161960CAD1DAD2EAD3FAD61970A
:100660000E94890869857A858B859C854AE025E00A
:100670008E01075E1F4F0E94340D6D857E858F852C
:1006800098894AE025E08E010D5D1F4F0E94340DD0
:10069000CE0149960E94950582E391E00E9495055E
:1006A000C8010E94950582E391E00E9495056D8541
:1006B0007E858F85988920E030E04FE753E40E94E3
:1006C000A10C0E944D0B7B018C0169857A858B857D
:1006D0009C8520E030E04FE753E40E94A10C0E948B
:1006E0004D0B9B01AC01C701B9010E94BF06ECCEC6
:1006F000B19BEACE85E391E029C08DE391E00E94B1
:100700009505C1010E94790789899A89BE01635DB7
:100710007F4F4AE050E00E94730DCE018D9612C0CB
:100720008AE491E00E949505C1010E9479078D89B4
:100730009E89BE01635C7F4F4AE050E00E94730DCA
:10074000CE01CD960E94950582E391E00E94950529
:10075000BBCE87E689B988E98AB986E88093950097
:1007600010928C031092820310928D0310928F03CB
:1007700010928E03089580E18093990088E9809318
:100780009A0086E880939D0010929203109288034D
:10079000109285031092890310928E0308958AB1F6
:1007A00087708AB90895EAE9F0E0808187708083D4
:1007B00008951F920F920FB60F920BB60F9211244D
:1007C0008F939F93EF93FF939CB19093F501E091EA
:1007D0008203EF5FEF77E093F401E093820380916F
:1007E0008C03E81741F48FB7F894109282031092AB
:1007F0008C038FBF04C0F0E0EA50FE4F9083FF915E
:10080000EF919F918F910F900BBE0F900FBE0F90A5
:100810001F9018951F920F920FB60F920BB60F9262
:1008200011248F939F93EF93FF9390919C0090934B
:10083000F301E0918803EF5FEF77E093F201E0933B
:10084000880380919203E81741F48FB7F8941092CF
:100850008803109292038FBF04C0F0E0EA54FD4F6A
:100860009083FF91EF919F918F910F900BBE0F900E
:100870000FBE0F901F9018951F920F920FB60F92F8
:100880000BB60F9211248F939F93EF93FF93909148
:100890008F0380918D03981781F0E0918D03EF5FB6
:1008A000EF73E093F101E0938D03F0E0EA58FD4F20
:1008B00080818093F0018CB901C05598FF91EF9130
:1008C0009F918F910F900BBE0F900FBE0F901F90B6
:1008D00018951F920F920FB60F920BB60F9211241C
:1008E0008F939F93EF93FF9390918903809185035A
:1008F000981789F0E0918503EF5FEF73E093EF01C4
:10090000E0938503F0E0EA5CFC4F80818093EE0188
:1009100080939C0005C080919A008F7D80939A00FF
:10092000FF91EF919F918F910F900BBE0F900FBE93
:100930000F901F9018959091820380918C039817C7
:10094000D1F3E0918C03EF5FEF77E0938C03F0E05D
:10095000EA50FE4F80810895909188038091920320
:100960009817D1F3E0919203EF5FEF77E093920352
:10097000F0E0EA54FD4F80810895282F90918F0375
:100980009F5F9F7380918D039817E1F3E92FF0E04B
:10099000EA58FD4F208390938F03559A0895282F8E
:1009A000909189039F5F9F73809185039817E1F36E
:1009B000E92FF0E0EA5CFC4F20839093890380915B
:1009C0009A00806280939A000895909182038091AA
:1009D0008C0320E0981321E0822F089590918803E2
:1009E0008091920320E0981321E0822F0895909146
:1009F0008F0380918D0320E0981321E0822F0895CA
:100A0000909189038091850320E0981321E0822F43
:100A100008952FB7F8949091820380918C039817D2
:100A200028F09091820380918C0305C090918203FD
:100A300080918C039058981B2FBF892F08952FB752
:100A4000F8949091880380919203981728F09091E0
:100A500088038091920305C090918803809192034E
:100A60009058981B2FBF892F08952FB7F894909115
:100A70008F0380918D03981728F090918F038091B8
:100A80008D0305C090918F0380918D03905C981B1E
:100A90002FBF892F08952FB7F894909189038091E3
:100AA0008503981728F0909189038091850305C0EC
:100AB0009091890380918503905C981B2FBF892FAB
:100AC00008958FB7F89410928F0310928D038FBF03
:100AD00008958FB7F89410928903109285038FBF01
:100AE00008958FB7F8941092820310928C038FBFF1
:100AF00008958FB7F89410928803109292038FBFD5
:100B0000089580E00E94BD048DE00E94BD048AE04B
:100B10000E94BD04089580E00E94CF048DE00E94F1
:100B2000CF048AE00E94CF040895EF92FF920F93C2
:100B30001F93DF93CF930F92CDB7DEB77C0190E088
:100B40008701090F111DF801808199830E94BD045E
:100B5000F80180819981882311F09F5FF1CF892F5F
:100B60000F90CF91DF911F910F91FF90EF9008951B
:100B7000EF92FF920F931F93DF93CF930F92CDB716
:100B8000DEB77C0190E08701090F111DF80180811B
:100B900099830E94CF04F80180819981882311F004
:100BA0009F5FF1CF892F0F90CF91DF911F910F9110
:100BB000FF90EF900895CF93DF93DC01EC0120E0EC
:100BC0001EC0AE019091820380918C039817D1F3DF
:100BD000E0918C03EF5FEF77E0938C03F0E0EA5055
:100BE000FE4FE081E883ED3029F0EA3019F02196DC
:100BF000EE2321F4FA0110822F5F07C02F5F261722
:100C000000F3A20FB11D11971C92822FDF91CF919B
:100C10000895CF93DF93DC01EC0120E01EC0AE010C
:100C200090918803809192039817D1F3E0919203F9
:100C3000EF5FEF77E0939203F0E0EA54FD4FE0813D
:100C4000E883ED3029F0EA3019F02196EE2321F403
:100C5000FA0110822F5F07C02F5F261700F3A20F43
:100C6000B11D11971C92822FDF91CF910895EF92C1
:100C7000FF920F931F93CF93DF937C01C0E0D0E0EE
:100C8000062F10E007C0F701EC0FFD1F80810E94C6
:100C9000BD042196C017D107B0F3DF91CF911F910A
:100CA0000F91FF90EF900895EF92FF920F931F9393
:100CB000CF93DF937C01C0E0D0E0062F10E007C0A7
:100CC000F701EC0FFD1F80810E94CF042196C01711
:100CD000D107B0F3DF91CF911F910F91FF90EF906B
:100CE0000895AC0120E030E070E016C090918203DE
:100CF00080918C039817D1F3E0918C03EF5FEF772D
:100D0000E0938C03DA01A20FB31FF0E0EA50FE4F2C
:100D100080818C932F5F3F4F2617370738F3089554
:100D2000AC0120E030E070E016C090918803809123
:100D300092039817D1F3E0919203EF5FEF77E0937E
:100D40009203DA01A20FB31FF0E0EA54FD4F808155
:100D50008C932F5F3F4F2617370738F30895EBE842
:100D6000F0E08081816F8083EAE8F0E0808182603A
:100D70008083E5E6F0E08081877F808308959C0191
:100D8000009719F461157105D9F0809165008860AC
:100D900080936500121613061CF4DB9ADC9805C0DC
:100DA0002115310511F0DB98DC9A161617061CF494
:100DB000DD9ADE9805C06115710511F0DD98DE9AA7
:100DC00077FF03C0709561957F4F6F3F71051CF0F1
:100DD0008FEF90E002C0862F90E090938700809381
:100DE0008600C90137FF03C0909581959F4F8F3FC3
:100DF00091051CF08FEF90E001C090E0909385008A
:100E00008093840008958FEF90E06FEF70E00E9470
:100E1000BF06DB9ADC9ADD9ADE9A0895E5E6F0E0FB
:100E20008081877F808308951F920F920FB60F9263
:100E300011242F938F939F93809176039091770342
:100E4000892B49F0809176039091770301979093D5
:100E500077038093760380917803909179030196CC
:100E600090937903809378030197845F914038F0E1
:100E700082B3805882BB10927903109278039F91BD
:100E80008F912F910F900FBE0F901F90189589EFA3
:100E900081BF87B7826087BF8CE083BF089590933E
:100EA0007703809376038091760390917703892B63
:100EB000D1F70895BB9ABC98A59AA6980895AD98C5
:100EC00085E0982F9A95F1F7AD9A90E49A95F1F70D
:100ED000AD988A95F1F70895C39885E0982F9A9573
:100EE000F1F7C39A90E49A95F1F7C3988A95F1F7D0
:100EF0000895CF93DF93EC010E946C0780E090E0AF
:100F0000A0E0B0E0B4990FC00196A11DB11D803CD6
:100F100027E2920729E0A20720E0B20799F718829A
:100F200019821A821B821FBC8EB582608EBD1DBCC9
:100F30001CBC20E030E040E050E0B49B19C08CB510
:100F40009DB581569A4EA0F42F5F3F4F4F4F5F4F94
:100F5000203C87E2380789E0480780E0580769F7B6
:100F600081E090E0A0E0B0E088839983AA83BB830E
:100F70008CB59DB51EBC81569A4E48F082E090E03B
:100F8000A0E0B0E088839983AA83BB830CC0CA0128
:100F9000B9012AE330E040E050E00E94120D2883BE
:100FA00039834A835B830E945F0780E090E0A0E082
:100FB000B0E09E990FC00196A11DB11D803C27E2B3
:100FC000920729E0A20720E0B20799F71C821D8250
:100FD0001E821F821FBC8EB582608EBD1DBC1CBCD4
:100FE00020E030E040E050E09E9B16C08CB59DB5FF
:100FF0002F5F3F4F4F4F5F4F203C67E2360769E05E
:10100000460760E0560781F781E090E0A0E0B0E09D
:101010008C839D83AE83BF838CB59DB51EBC8156EA
:101020009A4E48F082E090E0A0E0B0E08C839D838F
:10103000AE83BF830CC0CA01B9012AE330E040E0AF
:1010400050E00E94120D2C833D834E835F83DF911D
:10105000CF9108952F923F924F925F926F927F921D
:101060008F929F92AF92BF92CF92DF92EF92FF92B8
:101070000F931F93DF93CF9300D000D0CDB7DEB78F
:101080003B014C0129833A834B835C83C601B50144
:10109000298C3A8C4B8C5C8CA20191010E944F0AE6
:1010A0005B016C01C401B301A80197010E944F0AC2
:1010B0009B01AC01C601B5010E94A10C5B016C0152
:1010C00069817A818B819C81A80197010E944F0AD6
:1010D0009B01AC01C601B5010E94B40AA2019101B5
:1010E0000E94500A0F900F900F900F90CF91DF91B8
:1010F0001F910F91FF90EF90DF90CF90BF90AF9036
:101100009F908F907F906F905F904F903F902F9027
:1011100008952F923F924F925F926F927F928F929B
:101120009F92AF92BF92CF92DF92EF92FF920F9376
:101130001F93DF93CF93CDB7DEB7A8970FB6F89480
:10114000DEBF0FBECDBF9EA38DA349835A836B83A1
:101150007C830D831E832F833887C986DA86EB86CE
:10116000FC868D869E86AF86B88A3E010894611CF7
:10117000711C0F2EF0E02F2EF0E03F2EF0E84F2EE6
:10118000FFEB5F2EF02D41E1842E912C8C0E9D1EE5
:1011900000D000D0F3016081718182819381EDB72D
:1011A000FEB7218232824382548220E030E040E860
:1011B0005FE30F2EF0E0EF2EF0E0FF2EF0E00F2FB8
:1011C000F0E01F2FF02D59016A010E942A080F90AC
:1011D0000F900F900F90F30161937193819391930E
:1011E0003F01E815F905A1F684E111928A95E9F726
:1011F00038EA232E31E0332E23018824992462C05B
:10120000F50161917191819191915F01F6012191B7
:101210003191419151916F010E94A10C9B01AC0150
:10122000C801B7010E94500A7B018C01A614B704C3
:1012300039F7CB01D801F20180839183A283B38374
:10124000C801B701F10121913191419151911F01E3
:101250000E94500A20E030E040E050EC0E94A10CD7
:101260000E94210B20E030E040E85FE30E94500A3A
:101270009B01AC0160E070E080E090E40E94B40A61
:1012800020E030E040E85FE30E944F0AF201619302
:101290007193819391932F010894811C911CF5E027
:1012A0008F16910479F42AE7422E23E0522E9CEB0C
:1012B000292E91E0392E88249924CE01859698A76D
:1012C0008FA362C0F201E080F1800281138164018A
:1012D00084E0CC0CDD1C8A95E1F788E591E0C80E2E
:1012E000D91E5E010894A11CB11C8ACFF501619141
:1012F0007191819191915F01F6012191319141911B
:1013000051916F010E94A10C9B01AC01C801B70172
:101310000E94500A7B018C018FA198A5A816B906DE
:1013200029F7C801B701F101219131914191519102
:101330001F010E94500A20E030E040E050EC0E9483
:10134000A10C0E94210B20E030E040E85FE30E9406
:10135000500A9B01AC0160E070E080E090E40E94E4
:10136000B40A20E030E040E85FE30E944F0AF20157
:1013700061937193819391932F010894811C911C27
:10138000F2E08F169104A1F0F201E080F180028179
:10139000138184E190E0889E6001899ED00C989E24
:1013A000D00C1124E4ECF1E0CE0EDF1E53019ECFF1
:1013B00000D000D060917A0370917B0380917C0310
:1013C00090917D030F2EF0E06F2EF0E07F2EF0E085
:1013D0008F2EF0E09F2EF02DEDB7FEB76182728266
:1013E0008382948220E030E040E85FE30F2EF0E05B
:1013F000EF2EF0E0FF2EF0E80F2FFFEB1F2FF02D68
:1014000059016A010E942A081B012C0160937A038A
:1014100070937B0380937C0390937D0360917E03A4
:1014200070917F038091800390918103EDB7FEB7A7
:101430006182728283829482A60195010E942A08A9
:101440000F900F900F900F9060937E0370937F0327
:101450008093800390938103EDA1FEA120823182CD
:10146000428253826483758386839783A8960FB6DE
:10147000F894DEBF0FBECDBFCF91DF911F910F91CA
:10148000FF90EF90DF90CF90BF90AF909F908F90A4
:101490007F906F905F904F903F902F90089550589D
:1014A000BB27AA270ED0A3C194D130F099D120F048
:1014B00031F49F3F11F41EF464C10EF4E095E7FB94
:1014C0005AC1E92FA5D180F3BA17620773078407C1
:1014D000950718F071F49EF5BDC10EF4E0950B2E42
:1014E000BA2FA02D0B01B90190010C01CA01A00176
:1014F0001124FF27591B99F0593F50F4503E68F1D1
:101500001A16F040A22F232F342F4427585FF3CF11
:10151000469537952795A795F0405395C9F77EF4E2
:101520001F16BA0B620B730B840BBAF09150A1F02B
:10153000FF0FBB1F661F771F881FC2F70EC0BA0FB1
:10154000621F731F841F48F4879577956795B79539
:10155000F7959E3F08F0B3CF9395880F08F0992731
:10156000EE0F9795879508950CD041C139D140F081
:1015700030D130F021F45F3F19F0FDC051116BC143
:1015800000C146D198F39923C9F35523B1F3951BB4
:10159000550BBB27AA2762177307840738F09F5F94
:1015A0005F4F220F331F441FAA1FA9F333D00E2E03
:1015B0003AF0E0E830D091505040E695001CCAF770
:1015C00029D0FE2F27D0660F771F881FBB1F261735
:1015D00037074807AB07B0E809F0BB0B802DBF0108
:1015E000FF2793585F4F2AF09E3F510568F0C3C014
:1015F00032C15F3FECF3983EDCF3869577956795B3
:10160000B795F7959F5FC9F7880F911D96958795B8
:1016100097F90895E1E0660F771F881FBB1F6217D7
:1016200073078407BA0720F0621B730B840BBA0B95
:10163000EE1F88F7E095089519F40EF09CC00AC1DA
:10164000A0C0EED0C8F39638C0F707F80F92E89420
:101650002BE33AEA48EB5FE782D10F920F920F92A9
:101660004DB75EB70F923AD1ECE8F0E08DD04F91D4
:101670005F91EF91FF91E595EE1FFF1F49F0FE5737
:10168000E0684427EE0F441FFA95E1F74195550BAA
:10169000F1D00F9007FEE5C0089504D06894B11111
:1016A000DAC00895BDD088F09F5790F0B92F9927E0
:1016B000B751A0F0D1F0660F771F881F991F1AF05D
:1016C000BA95C9F712C0B13081F0C4D0B1E0089525
:1016D000C1C0672F782F8827B85F39F0B93FCCF3A6
:1016E000869577956795B395D9F73EF49095809553
:1016F000709561957F4F8F4F9F4F0895E89409C073
:1017000097FB3EF490958095709561957F4F8F4F34
:101710009F4F9923A9F0F92F96E9BB279395F6954A
:10172000879577956795B795F111F8CFFAF4BB0FC8
:1017300011F460FF1BC06F5F7F4F8F4F9F4F16C02C
:10174000882311F096E911C0772321F09EE8872FB6
:10175000762F05C0662371F096E8862F70E060E072
:101760002AF09A95660F771F881FDAF7880F9695EB
:10177000879597F9089597F99F6780E870E060E092
:1017800008959FEF80EC0895DF93CF931F930F93FD
:10179000FF92EF92DF927B018C01689405C0DA2EF4
:1017A000EF01DBD0FE01E894A5912591359145919B
:1017B0005591AEF3EF0185DEFE019701A801DA94A1
:1017C00079F7DF90EF90FF900F911F91CF91DF910C
:1017D000089500240A941616170618060906089597
:1017E00000240A9412161306140605060895092EFD
:1017F0000394000C11F4882352F0BB0F40F4BF2B6C
:1018000011F460FF04C06F5F7F4F8F4F9F4F0895AB
:1018100057FD9058440F551F59F05F3F71F04795A1
:10182000880F97FB991F61F09F3F79F08795089586
:10183000121613061406551FF2CF4695F1DF08C0A5
:10184000161617061806991FF1CF869571056105C2
:1018500008940895E894BB2766277727CB0197F96A
:1018600008959B01AC0160E070E080E89FE37CCECE
:1018700082CFCAC0D5DFE8F39923D9F3940F511D65
:10188000BBF39150504094F059F0882332F0660F2A
:10189000771F881F91505040C1F79E3F510544F774
:1018A000880F911D9695879597F908955F3FACF045
:1018B000983E9CF0BB27869577956795B79508F479
:1018C000B1609395C1F7BB0F58F711F460FFE8CFF3
:1018D0006F5F7F4F8F4F9F4FE3CFBDCFFA01DC018A
:1018E000AA0FBB1F9B01AC01BF5728F42227332747
:1018F000442750781FC0B75188F4AB2F0024469579
:1019000037952795011CA395D2F3002069F0220F8B
:10191000331F441FB395DAF30DD0C1CD613071058B
:10192000A0E88A07B94630F49B01AC016627772707
:1019300088279078309621F0208331834283538327
:1019400008950BD054CF45DF28F04ADF18F09523D7
:1019500009F011CF16CF11247ECF5ADFA0F3959F47
:10196000D1F3950F50E0551F629FF001729FBB2786
:10197000F00DB11D639FAA27F00DB11DAA1F649F32
:101980006627B00DA11D661F829F2227B00DA11DE5
:10199000621F739FB00DA11D621F839FA00D611D6B
:1019A000221F749F3327A00D611D231F849F600D8C
:1019B000211D822F762F6A2F11249F5750408AF0C5
:1019C000E1F088234AF0EE0FFF1FBB1F661F771F51
:1019D000881F91505040A9F79E3F510570F0CBCE23
:1019E0003ACF5F3FECF3983EDCF3869577956795A9
:1019F000B795F795E7959F5FC1F7FE2B880F911D6F
:101A00009695879597F908959F3F31F0915020F46E
:101A1000879577956795B795880F911D96958795CA
:101A200097F90895A1E21A2EAA1BBB1BFD010DC058
:101A3000AA1FBB1FEE1FFF1FA217B307E407F5077E
:101A400020F0A21BB30BE40BF50B661F771F881F5A
:101A5000991F1A9469F760957095809590959B01F0
:101A6000AC01BD01CF010895EF92FF920F931F9338
:101A7000F22FF02E47FD02C0E4E001C0E4E1242F84
:101A8000332727FD309537FF03C0309521953F4F11
:101A90004F2D512F0F2FEE2E0E949C0D8F2D912F29
:101AA0001F910F91FF90EF900895FC0188279927CF
:101AB000E89421912032E9F3293010F02E30C8F358
:101AC0002B3241F02D3239F4689404C00E94940DF9
:101AD000820F911D219120532A30C0F31EF490955E
:101AE00081959F4F0895FB019F01E8944230C4F017
:101AF0004532B4F44A3029F497FB1EF49095819551
:101B00009F4F642F77270E940610805D8A330CF068
:101B1000895D8193CB010097A1F716F45DE25193A3
:101B20001082C9010C94F60F7AE0979F902D879F41
:101B3000802D910D112408956F927F928F929F9224
:101B4000AF92BF92CF92DF92EF92FF920F931F93CB
:101B5000DF93CF93CDB7DEB729970FB6F894DEBFEA
:101B60000FBECDBF6A01122FA02EBE2C2BE3201773
:101B700018F42CE3922E02C0902E9394AE014F5F86
:101B80005F4F27E0092D0E941E0FBC018981E82EBE
:101B9000FF24C70189709070019711F4ADE209C06C
:101BA000B1FE02C0ABE205C0B0FC02C0A0E001C0C3
:101BB000A0E2E3FE3BC0AA2311F423E001C024E02D
:101BC000211710F020E002C0121B212FEB2CB4FED5
:101BD00002C0322F0AC0F601322F80E202C0819388
:101BE00031503323E1F7C20ED11CAA2319F0F601BC
:101BF000A1936F01F6013196E2FE05C09EE4D60185
:101C00009C9381E404C09EE6D6019C9381E61196E4
:101C10008C9391833296DF01832F90E202C09D93D3
:101C200081508823E1F7E30FF11D40C0E2FE42C07E
:101C3000AA2311F423E001C024E0211710F020E0D2
:101C400002C0121B212FEB2CB4FE02C0922F0AC03F
:101C5000F601922F80E202C0819391509923E1F71F
:101C6000C20ED11CAA2319F0F601A1936F01F6014F
:101C70003196E2FE08C089E4D6018C938EE4119679
:101C80008C9386E407C089E6D6018C938EE6119684
:101C90008C9386E681833296DF01892F20E202C091
:101CA0002D9381508823E1F7E90FF11D10822EEF6B
:101CB0003FEFAEC0161617061CF041E050E003C01F
:101CC000AB014F5F5F4FAA2019F480E090E003C0A2
:101CD0008A2D90E0019620E030E0AA2311F021E067
:101CE00030E0240F351F280F391F812F90E028176F
:101CF000390714F020E002C0121B212F4B2D50E0B9
:101D0000CA0180719070B4FC0DC0B3FC0BC0F60129
:101D1000322F40E202C0419331503323E1F7C20E2B
:101D2000D11C01C0322FAA2319F0F601A1936F0133
:101D3000892B11F0132F0AC0F601132F80E302C084
:101D4000819311501123E1F7C30ED11C092D060F09
:101D5000BA8090E1892E912C8E209F20E4FE04C051
:101D6000F1E3BF1609F40150101614F001E003C0AE
:101D7000093008F008E09B0177FF02C020E030E066
:101D8000CB010196821B930BFE013196E80FF91FE0
:101D90008EE2F82E3B01601A71088A2D90E04427EC
:101DA0005527481B590B8FEF2F3F380719F4D601E1
:101DB000FD926D01621773072CF06216730614F41E
:101DC000808101C080E321503040319624173507CF
:101DD00024F0D6018D936D01E6CF2617370741F425
:101DE000B5E3BB1520F0BB1619F4892809F481E38B
:101DF000F6018193D601812F90E202C09C9381501D
:101E000011968823D9F7E10FF11D108220E030E010
:101E1000C90129960FB6F894DEBF0FBECDBFCF9192
:101E2000DF911F910F91FF90EF90DF90CF90BF90C7
:101E3000AF909F908F907F906F900895283008F01A
:101E400027E03327DA01990F311D87FD9160009655
:101E50006105710539F432602E5F3D9330E32A95B8
:101E6000E1F708959F3F30F080387105610509F072
:101E70003C5F3C5F3D93913008F08068911DDF939B
:101E8000CF931F930F93FF92EF92192F987F969500
:101E9000E92F96959695E90FFF27E25FFE4F992768
:101EA0003327EE24FF24A701E70105900894079447
:101EB00028F4360FE71EF81E491F511D660F771FC5
:101EC000881F991F0694A1F70590079428F4E70E40
:101ED000F81E491F561FC11D770F881F991F661FC7
:101EE0000694A1F70590079428F4F80E491F561F91
:101EF000C71FD11D880F991F661F771F0694A1F772
:101F00000590079420F4490F561FC71FD81F990F3B
:101F1000661F771F881F0694A9F784911095177084
:101F200041F0D695C79557954795F794E7941A953C
:101F3000C1F7E4EBF0E06894159015913591659147
:101F4000959105907FE27395E118F10A430B560BCA
:101F5000C90BD009C0F7E10CF11E431F561FC91F62
:101F6000D01D7EF4703311F48A95E6CFE8940150C9
:101F700030F0080F0AF40027021708F4202F2395E9
:101F8000022F7A3328F079E37D932A95E9F710C080
:101F90007D932A9589F606949795679537951795B9
:101FA0001794E118F10A430B560BC90BD00998F0AE
:101FB00023957E9173957A3308F070E37C93201318
:101FC000B8F77E9170617D9330F0839571E37D93D6
:101FD00070E32A95E1F71124EF90FF900F911F9184
:101FE000CF91DF91992787FD90950895DC01FC0141
:101FF000672F71917723E1F7329704C07C916D933D
:1020000070836291AE17BF07C8F30895AA1BBB1B6C
:1020100051E107C0AA1FBB1FA617B70710F0A61BE8
:10202000B70B881F991F5A95A9F780959095BC0109
:08203000CD010895F894FFCFE3
:102038001001554152543020746573740D0A0050D4
:102048006F64616A206E6F776120707265646B6F70
:10205800736320282D323535202D20323535293A25
:1020680020000D0A004A616E75737A3200556C744F
:102078007261736F6E69633A2000556C7472617394
:102088006F6E6963323A2000BCE7CABFC003F33FF2
:102098004045F73E2512BDBEC52E3EBEC5870C4045
:1020A8006F2E693F0C2BB0BF22EE12C0C2891340BD
:1020B8007B5E48BF2C1CAA3F890D823E33B994BE73
:1020C800044636C0E8B702C01ABBB93E6FE246C044
:1020D800A0734140822B04C0623AD7BE58492A40B7
:1020E8002FDD7B3FB7DF4FBFCE507E404108A4BEF7
:1020F8009EF286BFAA9F0AC096FE99BFC6F9213FE5
:102108003EC2D3BF4F660BBE235FA73F5C31F93E8B
:0C211800DA3A0D3E05DED7BF8834A7BEC2
:00000001FF
