:100000000C945A000C9479000C9479000C947900AB
:100010000C9479000C9479000C9479000C9479007C
:100020000C9479000C9479000C9479000C9479006C
:100030000C9479000C9479000C9479000C94FC04D5
:100040000C9479000C9479000C94C1010C94240256
:100050000C9479000C9479000C9479000C9479003C
:100060000C9479000C9479000C9479000C9479002C
:100070000C9479000C9479000C94F2010C945102C8
:100080000C9479000C9479000C9479000763423643
:10009000B79BD8A71A39685618AEBAAB558C1D3C19
:1000A000B7CC5763BD6DEDFD753EF6177231BF00DD
:1000B0000000803F11241FBECFEFD0E1DEBFCDBFD7
:1000C00011E0A0E0B1E0ECE3F6E100E00BBF02C01C
:1000D00007900D92A23AB107D9F713E0A2EAB1E076
:1000E00001C01D92AF33B107E1F70E9494000C9458
:1000F0001C0B0C9400008AB388678ABB82B18861AC
:1001000082B9E4E6F0E0808188608083E5E6F0E093
:100110008081877F8083A29881B3806C81BBB998EE
:10012000B8981092610008952F923F924F925F927B
:100130006F927F928F929F92AF92BF92CF92DF92F7
:10014000EF92FF920F931F93DF93CF93CDB7DEB75C
:1001500064970FB6F894DEBF0FBECDBF0E947B0040
:100160000E9491010E942F050E9497040E9442055F
:10017000789480E091E00E947D03969A82E090E07E
:10018000019709F0C1C0222433240E94CD028823A4
:1001900041F00E948302823611F40E94EB04222473
:1001A000332419861A861B861C861D861E861F868A
:1001B000188ACE0109960E94610516B306B3898597
:1001C0009A85AB85BC8585369105A105B10540F0C2
:1001D00084E690E0A0E0B0E089879A87AB87BC878F
:1001E0008D859E85AF85B88985369105A105B105B8
:1001F00040F084E690E0A0E0B0E08D879E87AF8776
:10020000B88B69857A858B859C8524E630E040E053
:1002100050E00E94FA0ACA01B9010E946609698B7E
:100220007A8B8B8B9C8B6D857E858F85988924E658
:1002300030E040E050E00E94FA0ACA01B9010E9491
:1002400066092B013C0180E090E0A0E0B0E08983EA
:100250009A83AB83BC838D839E83AF83B887612FE2
:1002600070E07695679561707070882777FD80954E
:10027000982F0E9468096B017C01602F70E061700B
:100280007070882777FD8095982F0E9468094B0130
:100290005C01CE010196B301A20109891A892B895B
:1002A0003C890E94710669817A818B819C8120E062
:1002B00030E04FE753E40E94890A0E9435098B0120
:1002C0006D817E818F81988520E030E04FE753E497
:1002D0000E94890A0E943509CB010233110534F4CA
:1002E000623371051CF40E94F60403C0B8010E9439
:1002F000A7040894211C311C9AE0291631040CF43F
:1003000044CF0E94EB043ACF0E94CD02882309F427
:1003100035CF0E948302813609F030CF81E090E032
:100320002FCF87E689B988E98AB986E88093950056
:1003300010923A031092360310923B0310923D0341
:1003400010923C03089580E18093990088E980939E
:100350009A0086E880939D0010923E031092380325
:10036000109237031092390310923C0308958AB11A
:1003700087708AB90895EAE9F0E080818770808308
:1003800008951F920F920FB60F920BB60F92112481
:100390008F939F93EF93FF939CB19093A901E0916A
:1003A0003603EF5FEF77E093A801E0933603809187
:1003B0003A03E81741F48FB7F8941092360310927D
:1003C0003A038FBF04C0F0E0E655FE4F9083FF91E3
:1003D000EF919F918F910F900BBE0F900FBE0F90DA
:1003E0001F9018951F920F920FB60F920BB60F9297
:1003F00011248F939F93EF93FF9390919C00909380
:10040000A701E0913803EF5FEF77E093A601E09357
:10041000380380913E03E81741F48FB7F8941092A7
:10042000380310923E038FBF04C0F0E0E659FD4F41
:100430009083FF91EF919F918F910F900BBE0F9042
:100440000FBE0F901F9018951F920F920FB60F922C
:100450000BB60F9211248F939F93EF93FF9390917C
:100460003D0380913B03981781F0E0913B03EF5FE0
:10047000EF73E093A501E0933B03F0E0E65DFD4FF1
:1004800080818093A4018CB901C05598FF91EF91B0
:100490009F918F910F900BBE0F900FBE0F901F90EA
:1004A00018951F920F920FB60F920BB60F92112450
:1004B0008F939F93EF93FF9390913903809137032C
:1004C000981789F0E0913703EF5FEF73E093A30192
:1004D000E0933703F0E0E651FD4F80818093A20165
:1004E00080939C0005C080919A008F7D80939A0034
:1004F000FF91EF919F918F910F900BBE0F900FBEC8
:100500000F901F9018959091360380913A03981799
:10051000D1F3E0913A03EF5FEF77E0933A03F0E035
:10052000E655FE4F808108959091380380913E03F7
:100530009817D1F3E0913E03EF5FEF77E0933E032E
:10054000F0E0E659FD4F80810895282F90913D03FA
:100550009F5F9F7380913B039817E1F3E92FF0E0D1
:10056000E65DFD4F208390933D03559A0895282F13
:10057000909139039F5F9F73809137039817E1F340
:10058000E92FF0E0E651FD4F2083909339038091ED
:100590009A00806280939A0008959091360380912A
:1005A0003A0320E0981321E0822F089590913803B8
:1005B00080913E0320E0981321E0822F08959091CE
:1005C0003D0380913B0320E0981321E0822F0895A2
:1005D000909139038091370320E0981321E0822F16
:1005E00008952FB7F8949091360380913A039817A5
:1005F00028F09091360380913A0305C0909136031C
:1006000080913A039058981B2FBF892F08952FB7D8
:10061000F8949091380380913E03981728F09091B8
:10062000380380913E0305C09091380380913E03CA
:100630009058981B2FBF892F08952FB7F894909149
:100640003D0380913B03981728F090913D038091E2
:100650003B0305C090913D0380913B03905C981B48
:100660002FBF892F08952FB7F89490913903809167
:100670003703981728F0909139038091370305C00C
:100680009091390380913703905C981B2FBF892F7D
:1006900008958FB7F89410923D0310923B038FBFDB
:1006A00008958FB7F89410923903109237038FBFD3
:1006B00008958FB7F8941092360310923A038FBFC3
:1006C00008958FB7F8941092380310923E038FBFAD
:1006D000089580E00E94A5028DE00E94A5028AE0B4
:1006E0000E94A502089580E00E94B7028DE00E945A
:1006F000B7028AE00E94B7020895EF92FF920F932B
:100700001F93DF93CF930F92CDB7DEB77C0190E0BC
:100710008701090F111DF801808199830E94A502AC
:10072000F80180819981882311F09F5FF1CF892F93
:100730000F90CF91DF911F910F91FF90EF9008954F
:10074000EF92FF920F931F93DF93CF930F92CDB74A
:10075000DEB77C0190E08701090F111DF80180814F
:1007600099830E94B702F80180819981882311F052
:100770009F5FF1CF892F0F90CF91DF911F910F9144
:10078000FF90EF900895CF93DF93DC01EC0120E020
:100790001EC0AE019091360380913A039817D1F3B1
:1007A000E0913A03EF5FEF77E0933A03F0E0E6552C
:1007B000FE4FE081E883ED3029F0EA3019F0219610
:1007C000EE2321F4FA0110822F5F07C02F5F261756
:1007D00000F3A20FB11D11971C92822FDF91CF91D0
:1007E0000895CF93DF93DC01EC0120E01EC0AE0141
:1007F0009091380380913E039817D1F3E0913E0326
:10080000EF5FEF77E0933E03F0E0E659FD4FE081C4
:10081000E883ED3029F0EA3019F02196EE2321F437
:10082000FA0110822F5F07C02F5F261700F3A20F77
:10083000B11D11971C92822FDF91CF910895EF92F5
:10084000FF920F931F93CF93DF937C01C0E0D0E022
:10085000062F10E007C0F701EC0FFD1F80810E94FA
:10086000A5022196C017D107B0F3DF91CF911F9158
:100870000F91FF90EF900895EF92FF920F931F93C7
:10088000CF93DF937C01C0E0D0E0062F10E007C0DB
:10089000F701EC0FFD1F80810E94B7022196C0175F
:1008A000D107B0F3DF91CF911F910F91FF90EF909F
:1008B0000895AC0120E030E070E016C0909136035E
:1008C00080913A039817D1F3E0913A03EF5FEF7705
:1008D000E0933A03DA01A20FB31FF0E0E655FE4FB2
:1008E00080818C932F5F3F4F2617370738F3089589
:1008F000AC0120E030E070E016C0909138038091A8
:100900003E039817D1F3E0913E03EF5FEF77E0935A
:100910003E03DA01A20FB31FF0E0E659FD4F8081DC
:100920008C932F5F3F4F2617370738F30895EBE876
:10093000F0E08081816F8083EAE8F0E0808182606E
:100940008083E5E6F0E08081877F808308959C01C5
:10095000009719F461157105D9F0809165008860E0
:1009600080936500121613061CF4DB9ADC9805C010
:100970002115310511F0DB98DC9A161617061CF4C8
:10098000DD9ADE9805C06115710511F0DD98DE9ADB
:1009900077FF03C0709561957F4F6F3F71051CF025
:1009A0008FEF90E002C0862F90E0909387008093B5
:1009B0008600C90137FF03C0909581959F4F8F3FF7
:1009C00091051CF08FEF90E001C090E090938500BE
:1009D0008093840008958FEF90E06FEF70E00E94A5
:1009E000A704DB9ADC9ADD9ADE9A0895E5E6F0E04A
:1009F0008081877F808308951F920F920FB60F9298
:100A000011242F938F939F9380912A0390912B030E
:100A1000892B49F080912A0390912B0301979093A1
:100A20002B0380932A0380912C0390912D03019630
:100A300090932D0380932C030197845F914038F0AD
:100A400082B3805882BB10922D0310922C039F9189
:100A50008F912F910F900FBE0F901F90189589EFD7
:100A600081BF87B7826087BF8CE083BF0895909372
:100A70002B0380932A0380912A0390912B03892BC7
:100A8000D1F70895BB9ABC98A59AA6980895AD98F9
:100A900085E0982F9A95F1F7AD9A90E49A95F1F741
:100AA000AD988A95F1F70895C39885E0982F9A95A7
:100AB000F1F7C39A90E49A95F1F7C3988A95F1F704
:100AC0000895CF93DF93EC010E94540580E090E0FD
:100AD000A0E0B0E0B4990FC00196A11DB11D803C0B
:100AE00027E2920729E0A20720E0B20799F71882CF
:100AF00019821A821B821FBC8EB582608EBD1DBCFE
:100B00001CBC20E030E040E050E0B49B19C08CB544
:100B10009DB581569A4EA0F42F5F3F4F4F4F5F4FC8
:100B2000203C87E2380789E0480780E0580769F7EA
:100B300081E090E0A0E0B0E088839983AA83BB8342
:100B40008CB59DB51EBC81569A4E48F082E090E06F
:100B5000A0E0B0E088839983AA83BB830CC0CA015C
:100B6000B9012AE330E040E050E00E94FA0A28830D
:100B700039834A835B830E94470580E090E0A0E0D0
:100B8000B0E09E990FC00196A11DB11D803C27E2E7
:100B9000920729E0A20720E0B20799F71C821D8284
:100BA0001E821F821FBC8EB582608EBD1DBC1CBC08
:100BB00020E030E040E050E09E9B16C08CB59DB533
:100BC0002F5F3F4F4F4F5F4F203C67E2360769E092
:100BD000460760E0560781F781E090E0A0E0B0E0D2
:100BE0008C839D83AE83BF838CB59DB51EBC81561F
:100BF0009A4E48F082E090E0A0E0B0E08C839D83C4
:100C0000AE83BF830CC0CA01B9012AE330E040E0E3
:100C100050E00E94FA0A2C833D834E835F83DF916C
:100C2000CF9108952F923F924F925F926F927F9251
:100C30008F929F92AF92BF92CF92DF92EF92FF92EC
:100C40000F931F93DF93CF9300D000D0CDB7DEB7C3
:100C50003B014C0129833A834B835C83C601B50178
:100C6000298C3A8C4B8C5C8CA20191010E94370834
:100C70005B016C01C401B301A80197010E94370810
:100C80009B01AC01C601B5010E94890A5B016C01A0
:100C900069817A818B819C81A80197010E94370824
:100CA0009B01AC01C601B5010E949C08A201910103
:100CB0000E9438080F900F900F900F90CF91DF9106
:100CC0001F910F91FF90EF90DF90CF90BF90AF906A
:100CD0009F908F907F906F905F904F903F902F905C
:100CE00008952F923F924F925F926F927F928F92D0
:100CF0009F92AF92BF92CF92DF92EF92FF920F93AB
:100D00001F93DF93CF93CDB7DEB7A8970FB6F894B4
:100D1000DEBF0FBECDBF9EA38DA349835A836B83D5
:100D20007C830D831E832F833887C986DA86EB8602
:100D3000FC868D869E86AF86B88A3E010894611C2B
:100D4000711C0F2EF0E02F2EF0E03F2EF0E84F2E1A
:100D5000FFEB5F2EF02D41E1842E912C8C0E9D1E19
:100D600000D000D0F3016081718182819381EDB761
:100D7000FEB7218232824382548220E030E040E894
:100D80005FE30F2EF0E0EF2EF0E0FF2EF0E00F2FEC
:100D9000F0E01F2FF02D59016A010E9412060F90FA
:100DA0000F900F900F90F301619371938193919342
:100DB0003F01E815F905A1F684E111928A95E9F75A
:100DC0003DE5232E31E0332E23018824992462C08F
:100DD000F50161917191819191915F01F6012191EC
:100DE0003191419151916F010E94890A9B01AC019F
:100DF000C801B7010E9438087B018C01A614B70412
:100E000039F7CB01D801F20180839183A283B383A8
:100E1000C801B701F10121913191419151911F0117
:100E20000E94380820E030E040E050EC0E94890A3F
:100E30000E94090920E030E040E85FE30E943808A2
:100E40009B01AC0160E070E080E090E40E949C08AF
:100E500020E030E040E85FE30E943708F201619350
:100E60007193819391932F010894811C911CF5E05B
:100E70008F16910479F42EE2422E23E0522E91E750
:100E8000292E91E0392E88249924CE01859698A7A1
:100E90008FA362C0F201E080F180028113816401BE
:100EA00084E0CC0CDD1C8A95E1F78DE091E0C80E62
:100EB000D91E5E010894A11CB11C8ACFF501619175
:100EC0007191819191915F01F6012191319141914F
:100ED00051916F010E94890A9B01AC01C801B701C1
:100EE0000E9438087B018C018FA198A5A816B9062D
:100EF00029F7C801B701F101219131914191519137
:100F00001F010E94380820E030E040E050EC0E94D1
:100F1000890A0E94090920E030E040E85FE30E946E
:100F200038089B01AC0160E070E080E090E40E9432
:100F30009C0820E030E040E85FE30E943708F201BF
:100F400061937193819391932F010894811C911C5B
:100F5000F2E08F169104A1F0F201E080F1800281AD
:100F6000138184E190E0889E6001899ED00C989E58
:100F7000D00C1124E9E7F1E0CE0EDF1E53019ECF25
:100F800000D000D060912E0370912F038091300328
:100F9000909131030F2EF0E06F2EF0E07F2EF0E005
:100FA0008F2EF0E09F2EF02DEDB7FEB7618272829A
:100FB0008382948220E030E040E85FE30F2EF0E08F
:100FC000EF2EF0E0FF2EF0E80F2FFFEB1F2FF02D9C
:100FD00059016A010E9412061B012C0160932E0325
:100FE00070932F0380933003909331036091320309
:100FF000709133038091340390913503EDB7FEB7C0
:101000006182728283829482A60195010E941206F7
:101010000F900F900F900F906093320370933303F3
:101020008093340390933503EDA1FEA12082318299
:10103000428253826483758386839783A8960FB612
:10104000F894DEBF0FBECDBFCF91DF911F910F91FE
:10105000FF90EF90DF90CF90BF90AF909F908F90D8
:101060007F906F905F904F903F902F9008955058D1
:10107000BB27AA270ED0A3C194D130F099D120F07C
:1010800031F49F3F11F41EF464C10EF4E095E7FBC8
:101090005AC1E92FA5D180F3BA17620773078407F5
:1010A000950718F071F49EF5BDC10EF4E0950B2E76
:1010B000BA2FA02D0B01B90190010C01CA01A001AA
:1010C0001124FF27591B99F0593F50F4503E68F105
:1010D0001A16F040A22F232F342F4427585FF3CF46
:1010E000469537952795A795F0405395C9F77EF417
:1010F0001F16BA0B620B730B840BBAF09150A1F060
:10110000FF0FBB1F661F771F881FC2F70EC0BA0FE5
:10111000621F731F841F48F4879577956795B7956D
:10112000F7959E3F08F0B3CF9395880F08F0992765
:10113000EE0F9795879508950CD041C139D140F0B5
:1011400030D130F021F45F3F19F0FDC051116BC177
:1011500000C146D198F39923C9F35523B1F3951BE8
:10116000550BBB27AA2762177307840738F09F5FC8
:101170005F4F220F331F441FAA1FA9F333D00E2E37
:101180003AF0E0E830D091505040E695001CCAF7A4
:1011900029D0FE2F27D0660F771F881FBB1F261769
:1011A00037074807AB07B0E809F0BB0B802DBF013C
:1011B000FF2793585F4F2AF09E3F510568F0C3C048
:1011C00032C15F3FECF3983EDCF3869577956795E7
:1011D000B795F7959F5FC9F7880F911D96958795ED
:1011E00097F90895E1E0660F771F881FBB1F62170C
:1011F00073078407BA0720F0621B730B840BBA0BCA
:10120000EE1F88F7E095089519F40EF09CC00AC10E
:10121000A0C0EED0C8F39638C0F707F80F92E89454
:101220002BE33AEA48EB5FE782D10F920F920F92DD
:101230004DB75EB70F923AD1ECE8F0E08DD04F9108
:101240005F91EF91FF91E595EE1FFF1F49F0FE576B
:10125000E0684427EE0F441FFA95E1F74195550BDE
:10126000F1D00F9007FEE5C0089504D06894B11145
:10127000DAC00895BDD088F09F5790F0B92F992714
:10128000B751A0F0D1F0660F771F881F991F1AF091
:10129000BA95C9F712C0B13081F0C4D0B1E0089559
:1012A000C1C0672F782F8827B85F39F0B93FCCF3DA
:1012B000869577956795B395D9F73EF49095809587
:1012C000709561957F4F8F4F9F4F0895E89409C0A7
:1012D00097FB3EF490958095709561957F4F8F4F69
:1012E0009F4F9923A9F0F92F96E9BB279395F6957F
:1012F000879577956795B795F111F8CFFAF4BB0FFD
:1013000011F460FF1BC06F5F7F4F8F4F9F4F16C060
:10131000882311F096E911C0772321F09EE8872FEA
:10132000762F05C0662371F096E8862F70E060E0A6
:101330002AF09A95660F771F881FDAF7880F96951F
:10134000879597F9089597F99F6780E870E060E0C6
:1013500008959FEF80EC0895DF93CF931F930F9331
:10136000FF92EF92DF927B018C01689405C0DA2E28
:10137000EF01DBD0FE01E894A591259135914591CF
:101380005591AEF3EF0185DEFE019701A801DA94D5
:1013900079F7DF90EF90FF900F911F91CF91DF9140
:1013A000089500240A9416161706180609060895CB
:1013B00000240A9412161306140605060895092E31
:1013C0000394000C11F4882352F0BB0F40F4BF2BA0
:1013D00011F460FF04C06F5F7F4F8F4F9F4F0895E0
:1013E00057FD9058440F551F59F05F3F71F04795D6
:1013F000880F97FB991F61F09F3F79F087950895BB
:10140000121613061406551FF2CF4695F1DF08C0D9
:10141000161617061806991FF1CF869571056105F6
:1014200008940895E894BB2766277727CB0197F99E
:1014300008959B01AC0160E070E080E89FE37CCE02
:1014400082CFCAC0D5DFE8F39923D9F3940F511D99
:10145000BBF39150504094F059F0882332F0660F5E
:10146000771F881F91505040C1F79E3F510544F7A8
:10147000880F911D9695879597F908955F3FACF079
:10148000983E9CF0BB27869577956795B79508F4AD
:10149000B1609395C1F7BB0F58F711F460FFE8CF27
:1014A0006F5F7F4F8F4F9F4FE3CFBDCFFA01DC01BE
:1014B000AA0FBB1F9B01AC01BF5728F4222733277B
:1014C000442750781FC0B75188F4AB2F00244695AD
:1014D00037952795011CA395D2F3002069F0220FC0
:1014E000331F441FB395DAF30DD0C1CD61307105C0
:1014F000A0E88A07B94630F49B01AC01662777273C
:1015000088279078309621F020833183428353835B
:1015100008950BD054CF45DF28F04ADF18F095230B
:1015200009F011CF16CF11247ECF5ADFA0F3959F7B
:10153000D1F3950F50E0551F629FF001729FBB27BA
:10154000F00DB11D639FAA27F00DB11DAA1F649F66
:101550006627B00DA11D661F829F2227B00DA11D19
:10156000621F739FB00DA11D621F839FA00D611D9F
:10157000221F749F3327A00D611D231F849F600DC0
:10158000211D822F762F6A2F11249F5750408AF0F9
:10159000E1F088234AF0EE0FFF1FBB1F661F771F85
:1015A000881F91505040A9F79E3F510570F0CBCE57
:1015B0003ACF5F3FECF3983EDCF3869577956795DD
:1015C000B795F795E7959F5FC1F7FE2B880F911DA3
:1015D0009695879597F908959F3F31F0915020F4A3
:1015E000879577956795B795880F911D96958795FF
:1015F00097F90895A1E21A2EAA1BBB1BFD010DC08D
:10160000AA1FBB1FEE1FFF1FA217B307E407F507B2
:1016100020F0A21BB30BE40BF50B661F771F881F8E
:10162000991F1A9469F760957095809590959B0124
:0C163000AC01BD01CF010895F894FFCF7C
:10163C00554152543020746573740D0A00BCE7CACE
:10164C00BFC003F33F4045F73E2512BDBEC52E3E3D
:10165C00BEC5870C406F2E693F0C2BB0BF22EE121B
:10166C00C0C28913407B5E48BF2C1CAA3F890D82E7
:10167C003E33B994BE044636C0E8B702C01ABBB9B3
:10168C003E6FE246C0A0734140822B04C0623AD741
:10169C00BE58492A402FDD7B3FB7DF4FBFCE507E6F
:1016AC00404108A4BE9EF286BFAA9F0AC096FE992E
:1016BC00BFC6F9213F3EC2D3BF4F660BBE235FA707
:1016CC003F5C31F93EDA3A0D3E05DED7BF8834A7D0
:0216DC00BE004E
:00000001FF
